S01D0000534D435F534D435F5352414D5F4558414D504C45312E73726563B4
S214400000104500207D0B40007B0B40007B0B4000E2
S2144000107B0B40007B0B40007B0B40000000000049
S2144000200000000000000000000000007B0B4000C5
S2144000307B0B4000000000007B0B40009911400005
S2144000407B0B40007B0B40007B0B40007B0B400053
S2144000507B0B40007B0B40007B0B40007B0B400043
S2144000607B0B400035094000490940005D094000CF
S21440007071094000850940007B0B40007B0B400027
S2144000807B0B40007B0B40007B0B40007B0B400013
S214400090C91040007B0B40007B0B40007B0B4000B0
S2144000A07B0B40007B0B40007B0B40007B0B4000F3
S2144000B07B0B40007B0B40007B0B40007B0B4000E3
S2144000C07B0B40007B0B40007B0B40007B0B4000D3
S2144000D07B0B40007B0B40007B0B40007B0B4000C3
S2144000E07B0B40007B0B40007B0B40007B0B4000B3
S2144000F07B0B40007B0B400010B5054C237833B992
S214400100044B13B10448AFF300800123237010BDA5
S214400110C409002000000000704940000C4B43B169
S2144001200C480D4910B5AFF300800C48036823B95E
S21440013010BD0A48036833B97047094B002BF7D007
S214400140BDE810401847064B002BF5D0184700BFB7
S2144001500000000070494000C80900207049400077
S2144001600000000010B50E480E4B98473E21002078
S2144001700D4B98470D4CA0470028FCD00C4B984799
S2144001800C4A0D4B9A620D4CA0470028FCD010201C
S2144001900B4B98470B4B98470B48024B984710BD64
S2144001A0000E2707510D4000FD094000510A40004F
S2144001B0610A4000013F0F2000040E40710A4000D3
S2144001C099094000450C400000D8B8052DE9F0419B
S2144001D080B90C469046002A0FDD8F18084E094D10
S2144001E0306821462B6898470134BC42F8D14046D7
S2144001F0BDE8F0814FF0FF38F9E78046F7E700BFEB
S214400200A00A0020980A00200138022815D82DE9B7
S214400210F0410E4614469AB10D46DFF838800C4F32
S214400220D8F8000015F8011B3B68984700280ADB01
S214400230A81B013CF4D1BDE8F0814FF0FF30704779
S2144002401046BDE8F0814FF0FF30BDE8F08100BFBA
S2144002509C0A0020A00A0020F8B54FF40042C24B8A
S2144002605A600920C14CA0470A20A0470B20A0474F
S2144002700C20A0470D20A047BD4B4FF480071F61C0
S214400280C3F8A0701F63BB4A04245461C2F8A04060
S2144002905466C2F8904054651462C2F88440116FA8
S2144002A021F004011167516F21F004015167C2F833
S2144002B0C040C2F8D440C2F8B0404FF4C0611166A6
S2144002C0C2F8901051655162C2F88010106F20F449
S2144002D0C0601067506F20F4C060506751604FF4A4
S2144002E080201866C3F8900058655862C3F88000AE
S2144002F0196F21F480211967596F21F480215967BD
S21440030058604FF400211966C3F890105965596239
S214400310C3F880101D6F25F400251D675D6F25F41A
S21440032000255D675960A3F500734FF400651D66B0
S214400330C3F890505D655D62C3F880501E6F26F42A
S21440034000661E675E6F26F400665E675D604FF46B
S21440035080751D66C3F890505D655D62C3F8805039
S2144003601E6F26F480761E675E6F26F480765E6784
S2144003705D6001261E66C3F890605E655E62C3F8E7
S21440038080601D6F25F001051D675D6F25F0010536
S2144003905D675E6002251D66C3F890505D655D62D0
S2144003A0C3F88050D3F870E02EF0020EC3F870E029
S2144003B0D3F874E02EF0020EC3F874E05D601C665D
S2144003C0C3F890405C655C62C3F88040D3F870E048
S2144003D02EF0040EC3F870E0D3F874E02EF0040E4E
S2144003E0C3F874E05C6008241C66C3F890405C6503
S2144003F05C62C3F88040D3F870E02EF0080EC3F875
S21440040070E0D3F874E02EF0080EC3F874E05C6039
S21440041010241C66C3F890405C655C62C3F880405C
S214400420D3F870E02EF0100EC3F870E0D3F874E006
S2144004302EF0100EC3F874E05C6020241C66C3F8EF
S21440044090405C655C62C3F88040D3F870E02EF064
S214400450200EC3F870E0D3F874E02EF0200EC3F8F8
S21440046074E05C6040241C66C3F890405C655C6247
S214400470C3F88040D3F870E02EF0400EC3F870E02A
S214400480D3F874E02EF0400EC3F874E05C6080242D
S2144004901C66C3F890405C655C62C3F88040D3F845
S2144004A070E02EF0800EC3F870E0D3F874E02EF0C3
S2144004B0800EC3F874E05C601866C3F89000586518
S2144004C05862C3F880001C6F24F480241C675C6F5D
S2144004D024F480245C6758601966C3F89010596508
S2144004E05962C3F880101C6F24F400241C675C6FAC
S2144004F024F400245C6759604FF480141C66C3F8EB
S21440050090405C655C62C3F88040D3F870E02EF49F
S214400510801EC3F870E0D3F874E02EF4801EC3F853
S21440052074E05C604FF4001EC3F860E0C3F890E0EF
S214400530C3F854E0C3F824E0C3F880E0D3F870C0B2
S2144005402CF4001CC3F870C0D3F874C02CF4001C04
S214400550C3F874C0C3F804E01F66C3F890705F65C4
S2144005605F62C3F8807007E050180E40810A400072
S21440057000140E40000E0E40D3F870E02EF4800EAD
S214400580C3F870E0D3F874E02EF4800EC3F874E03D
S2144005905F604FF400071F66C3F890705F655F6248
S2144005A0C3F88070D3F870E02EF4000EC3F870E005
S2144005B0D3F874E02EF4000EC3F874E05F604FF09A
S2144005C080771F66C3F890705F655F62C3F880707F
S2144005D0D3F870E02EF0807EC3F870E0D3F874E075
S2144005E02EF0807EC3F874E05F604FF000771F66A1
S2144005F0C3F890705F655F62C3F88070D3F870E0B0
S2144006002EF0007EC3F870E0D3F874E02EF0007E43
S214400610C3F874E05F604FF080671F66C3F8907061
S2144006205F655F62C3F88070D3F870E02EF0806E2E
S214400630C3F870E0D3F874E02EF0806EC3F874E030
S2144006405F604FF000671F66C3F890705F655F623B
S214400650C3F88070D3F870E02EF0006EC3F870E0F8
S214400660D3F874E02EF0006EC3F874E05F604FF08D
S21440067080571F66C3F890705F655F62C3F88070EE
S214400680D3F870E02EF0805EC3F870E0D3F874E0E4
S2144006902EF0805EC3F874E05F604FF000571F6630
S2144006A0C3F890705F655F62C3F88070D3F870E0FF
S2144006B02EF0005EC3F870E0D3F874E02EF0005ED3
S2144006C0C3F874E05F604FF080471F66C3F89070D1
S2144006D05F655F62C3F88070D3F870E02EF0804E9E
S2144006E0C3F870E0D3F874E02EF0804EC3F874E0A0
S2144006F05F604FF000471F66C3F890705F655F62AB
S214400700C3F88070D3F870E02EF0004EC3F870E067
S214400710D3F874E02EF0004EC3F874E05F601066C5
S214400720C2F8900050655062C2F88000136F23F400
S21440073080231367536F0343536750601166C2F8B4
S214400740901051655162C2F88010136F23F4002355
S2144007501367536F0B43536751601466C2F890405B
S21440076054655462C2F88040136F23F480131367B5
S214400770536F2343536754601666C2F890605665BD
S2144007805662C2F88060136F23F001031367536FFD
S2144007903343536756601566C2F8905055655562A8
S2144007A0C2F88050136F23F002031367536F2B4336
S2144007B053675560F8BD00BF01230360704749B9D1
S2144007C0436843F480734360436823F010034360F8
S2144007D000207047436843F480734360436843F0A7
S2144007E010034360F4E7016270474368012901D96A
S2144007F00120704723F4981343EA014141600020EA
S21440080070470000436841B907491940120602F094
S2144008107C520A4342600020704723F07C5323F406
S2144008207F4343F40011F1E7FF00DFC0012901D9FF
S21440083001207047012303FA01F10161002070474F
S214400840C0F8941000207047436823F001034360CB
S2144008507047036823F01003194301607047012373
S2144008604360704781617047406A7047012303FACE
S21440087001F18162704701EB810100EBC1014A64DE
S214400880704701EB810100EBC1010A65704710B467
S214400890436A8B005C1800EBC40462640023E36484
S2144008A05DF8044B704709014250704700EB011158
S2144008B04A60704700EB01118A60704700EB0111F7
S2144008C0CA607047C06C7047806C70472DE9F8432B
S2144008D081460F46124B984705464846114B984767
S2144008E0054013D0104C04F1600603E0B4420DD02E
S2144008F010345DB12068B842F8D161682942F5D01D
S214400900E3689847636825EA0305EFE7074B1B68EB
S21440091023B1074B1B680BB148469847BDE8F883A0
S214400920C5084000C9084000E0090020A40A00208D
S214400930500A002008B509210148024B984708BDD7
S214400940000E0E40CD08400008B50A210148024B73
S214400950984708BD00100E40CD08400008B50B2152
S2144009600148024B984708BD00120E40CD08400093
S21440097008B50C210148024B984708BD00140E40AC
S214400980CD08400008B50D210148024B984708BDE8
S21440099000160E40CD084000174A136B23F0700334
S2144009A018431063936E13F0080F0AD14FF4006398
S2144009B011498A6E12F0080F03D1013BF9D101208C
S2144009C070470D4A136B23F0030343F0020313638F
S2144009D0936E13F0080F0AD14FF4006306498A6EEF
S2144009E012F0080F05D1013BF9D1012070470020D5
S2144009F070470020704700BF00040E40C8B9114A37
S214400A00136A090289B223F45C1323F0030343F408
S214400A105C1343F001030B431362936E13F0010F14
S214400A20FBD0084A136A43F09B7343F48033136247
S214400A30704704490B6A044A1A40044B13430B623E
S214400A40704700BF00040E40FCFFC8FE020037019E
S214400A50024B986E00F48030704700BF00040E4092
S214400A604FF00052014B9A62704700BF00040E40A0
S214400A70024B986E00F00200704700BF00040E4024
S214400A802F281ED81F280CD8114B9A690123834063
S214400A90934318D0012303FA00F00D4B1861002051
S214400AA0704720380A4BD3F80821012383409343EC
S214400AB00BD0012303FA00F0054BC3F800010020D9
S214400AC0704701207047002070470020704700BFE5
S214400AD000040E40836823F07F4343F0254343F0F1
S214400AE00103836070470000014B0360704700BFFE
S214400AF0050000A510B4AC2303600B684A68B3FB3E
S214400B00F2F31B095C1E4FF6FE7294420CD8036249
S214400B108B68436040F20223C0F8203150230360C4
S214400B2000205DF8044B70470120FAE7436913F054
S214400B30020F1ABFC161002001207047436913F0BD
S214400B40010F1DBF83690B70002001207047436969
S214400B5013F0020F1DBFC1F30801C1610020012040
S214400B607047436913F0010F05D08369C3F3080348
S214400B700B600020704701207047FEE700B583B049
S214400B80254B264A9A4210D0254B234A9A420CD2ED
S214400B90013B9B1A23F00303043313441F4951F8C7
S214400BA0040B42F8040B9A42F9D11E4B1E4A9A4255
S214400BB00AD2013B9B1A23F003030433134400215B
S214400BC042F8041B9342FBD1184A194B23F07F038B
S214400BD09360EFF31083B3FA83F35B09019372B625
S214400BE0BFF35F8F0022134B1A700199124A1368A5
S214400BF043F470031360BFF34F8FBFF36F8F29B179
S214400C0001220C4B1A70BFF35F8F62B60B4B9847AE
S214400C100B4B9847FEE700BF00000020704940009D
S214400C20C409002010150020C409002000ED00E093
S214400C30000040000000002088ED00E081184000E1
S214400C40211640003B4B1B6B03F00303012B1DD0CA
S214400C5083B1022B36D0374B1B6B03F07003702BDF
S214400C605FD0344B1A6B3449C2F302120B68D34040
S214400C700B607047314B5B6913F0800F14BF4FF425
S214400C8000424FF4FA422C4B1A60E4E7294B1B6AA9
S214400C9013F0807F03D02A4A274B1A60DBE7294AA5
S214400CA0254B1A60234B1B6A03F07003102B05D0AC
S214400CB0202BD0D1224A204B1A60CCE7224A1E4B2A
S214400CC01A60C8E71B4B1B6A13F0807F16D01C4A7D
S214400CD0194B1A60174B1B6B03F00303022BBAD158
S214400CE0144A916A926A1448C1F30A41036801FBA8
S214400CF00333D2B2B3FBF2F30360ACE7114A0E4BB8
S214400D001A600C4B1B6A03F07003102B05D0202B87
S214400D10E0D10B4A084B1A60DCE70B4A064B1A60D8
S214400D20D8E7054A13680949A1FB03135B0813601B
S214400D30704700BF00040E400400002010180E400C
S214400D40001BB70000093D0000127A00ABAAAAAA11
S214400D50124B984211D9124B984213D9114B9842D4
S214400D6014D9114B984215D9104B984294BF4FF066
S214400D7004220F4A0F4B1A6070474FF080620D4BAB
S214400D801A6070470C4A0B4B1A6070470B4A094B67
S214400D901A6070470A4A074B1A607047FF2C3101A9
S214400DA0FF596202FF869303FFB3C404FFE0F505D4
S214400DB000050004000A0E40000100040002000482
S214400DC0000300040A4B1B6853B1094B1B681A18F2
S214400DD00849914208DB1046054A1060184670479D
S214400DE0054A034B1A60F0E74FF0FF30704700BFEC
S214400DF0540A0020FCFF0120104500204FF0FF3031
S214400E0070474FF400534B600020704701207047F6
S214400E100020704770B50C46184B98420AD0184BC5
S214400E20984210D0174B984216D0174B98421CD079
S214400E30002070BD1E46154D21463046A847002866
S214400E40FAD1012070BD1E46104D21463046A847B7
S214400E500028FAD1012070BD1E460D4D2146304671
S214400E60A8470028FAD1012070BD1E46084D2146ED
S214400E703046A8470028FAD1012070BD00060E4033
S214400E800006064000000A4000400A402D0B400085
S214400E904F0B4000F0B583B005460C460023019347
S214400EA0184B98420AD0184B98420FD0174B98428E
S214400EB014D0174B9D421BD003B0F0BD1F46154EB5
S214400EC021463846B0470028FAD1F2E71E46114D73
S214400ED021463046A8470028FAD1EDE71E460E4D7B
S214400EE001A93046A8470028FAD1019B2370E3E7C2
S214400EF01E46094D01A93046A8470028FAD1019B55
S214400F002370D9E700060E400006064000000A405F
S214400F1000400A403D0B4000630B400038B5054694
S214400F200C4C4FF00132014620460B4B98474FF091
S214400F30063229462046094B98474FF00712294665
S214400F402046074B9847032229462046054B98479C
S214400F5038BD00BF00000640A7084000AD0840006E
S214400F60B5084000BD08400070B51420304B984787
S214400F70304C2046304B9847102120462F4B984700
S214400F8020462F4B98474FF08072002120462D4B2D
S214400F9098472D4B186881B241F008512B4A2C4E89
S214400FA016602C4D2B68536091604FF00074D460EF
S214400FB0294B13611E606D685D609960DC601A6144
S214400FC08600264B1A6802EBC002254B03F6D8155E
S214400FD01F4843F80C1C43F8084C43F8140C43F8DD
S214400FE0102C43F8043C32441433AB42F1D1002475
S214400FF01C4BC3F8FC490F4D144A214628461A4B51
S21440100098474FF48012194B1A6040F20111284657
S214401010174B9847174B1C6021462846164B984757
S214401020144A1368002BFCD00122144B1A6070BD82
S214401030810A400000000C40490840005308400028
S2144010405F0840008308400010000020AC0A0020E3
S2144010503C0E0E40F80A0020C00A0020080000207F
S2144010603C0B0020000B00208F08400000E100E011
S214401070650840005C0A00206D084000600A0020B9
S21440108070B400230F4D02E00133102B15D035F815
S214401090132092B2022AF7D041FA03F435F813200F
S2144010A092B204F0010696420AD140FA03F2624038
S2144010B012F0010FE8D1002000E0012070BC70471C
S2144010C00020FBE7D80A002010B5294B1B68002BF0
S2144010D03BD1284A1368B3FA83F35B09136013685D
S2144010E0254951F823301B681068244A126802F1DB
S2144010F08042013A51F8201051F82220C2F3C30131
S214401100D00900F4FE600143900A00F4C050014349
S214401110D00A00F4C0400143920B02F40042C3F3ED
S214401120C300DC0904F4FE6420439C0A04F4C05463
S2144011302043DC0A04F4C04420439B0B03F40043E2
S214401140114318430E4B984748B90E480E4B9847E4
S21440115010F4807F02D001220C4B1A6010BD0C4A5E
S214401160002108480B4B98470122014B1A60ECE7D8
S214401170D40A002000150020F80A002010000020A5
S2144011808110400000000C40690840005C0A0020C6
S214401190280B002077084000024A1368013313608A
S2144011A0704700BF580A00202DE9F04182B0002564
S2144011B0684B1D609846684C684E7FE00024684F38
S2144011C0684E86E02268D201002A0ADD1A46664941
S2144011D000200F6847F8220001322768B2EBC71F8D
S2144011E0F7DB22685102002907DD00213268D1541E
S2144011F001332268B3EB422FF8DB01215B4B1960C9
S21440120000235B490B604FF0FF305A4908605A494B
S2144012100B60554B1B6859490B6003EB82024A60D2
S214401220574B9847514B1B68CBB12368002B16DDB4
S2144012300023DFF838C1514ADCF8001052F821107C
S21440124051F82310106850F82300576847F82300D9
S214401250106840F82310013321689942ECDC23687B
S214401260DB01002B27DD0021DFF8FCE03C48DEF800
S214401270003053F82120C2F3C3034FEAD21C0CF4CB
S214401280FE6C43EA0C034FEA922C0CF4C05C43EA33
S2144012900C034FEAD22C0CF4C04C43EA0C03920BDE
S2144012A002F460321343026822F811300131236899
S2144012B0B1EBC31FDBDB0223C8F80030D8F80030A0
S2144012C0012BAFD0022B3FF479AF002BF8D179E752
S2144012D001353B68195B1888B04702340028F7D0C0
S2144012E01D4B1B68B5EBC31F15DA6C00DFF870802A
S2144012F0244F254ED8F80030195BCA436FEA1121B7
S214401300D2B2C9B23846B04710352034124B1B68AB
S214401310B5EBC31FEEDB1D481B4B98474FF0004212
S2144013204EF2FC031A601A4B1A4A5A60F0211A4AC7
S21440133082F8231000229A60072119600192174B09
S21440134019681A4613685B1AB3F57A7FFAD302B067
S214401350BDE8F081600A0020100000201400002044
S2144013600C000020811040000800002000150020DE
S21440137008150020A80A0020D40A0020F80A0020F9
S214401380690F4000A4474000D1184000AC474000D9
S21440139010E000E0FF76010000ED00E0580A002073
S2144013A09E4B08225A61C3F8A0201A66C3F89420C0
S2144013B05A655A62C3F880201A6F22F008021A67EC
S2144013C05A6F22F008025A6710225A61C3F8A020CA
S2144013D01A66C3F894205A655A62C3F880201A6F7A
S2144013E022F010021A675A6F22F010025A67202223
S2144013F05A61C3F8A0201A66C3F894205A655A6208
S214401400C3F880201A6F22F020021A675A6F22F023
S21440141020025A6740225A61C3F8A0201A66C3F8D1
S21440142094205A655A62C3F880201A6F22F0400210
S2144014301A675A6F22F040025A674FF400625A61A8
S214401440C3F8A0201A66C3F894205A655A62C3F8B7
S21440145080201A6F22F400621A675A6F22F40062E4
S2144014605A674FF480525A61C3F8A0201A66C3F8F0
S21440147094205A655A62C3F880201A6F22F480522C
S2144014801A675A6F22F480525A674FF400525A61D4
S214401490C3F8A0201A66C3F894205A655A62C3F867
S2144014A080201A6F22F400521A675A6F22F40052B4
S2144014B05A674FF480425A61C3F8A0201A66C3F8B0
S2144014C094205A655A62C3F880201A6F22F48042EC
S2144014D01A675A6F22F480425A674FF400425A61A4
S2144014E0C3F8A0201A66C3F894205A655A62C3F817
S2144014F080201A6F22F400421A675A6F22F4004284
S2144015005A674FF480325A61C3F8A0201A66C3F86F
S21440151094205A655A62C3F880201A6F22F48032AB
S2144015201A675A6F22F480325A674FF400325A6173
S214401530C3F8A0201A66C3F894205A655A62C3F8C6
S21440154080201A6F22F400321A675A6F22F4003253
S2144015505A674FF400125A61C3F8A0201A66C3F8BF
S21440156094205A655A62C3F880201A6F22F40012FB
S2144015701A675A6F22F400125A674FF480025A6173
S214401580C3F8A0201A66C3F894205A655A62C3F876
S21440159080201A6F22F480021A675A6F22F4800263
S2144015A05A674FF080725A61C3F8A0201A66C3F893
S2144015B094205A655A62C3F880201A6F22F08072CF
S2144015C01A675A6F22F080725A674FF000725A615B
S2144015D0C3F8A0201A66C3F894205A655A62C3F826
S2144015E080201A6F22F000721A675A6F22F000723B
S2144015F05A674FF000525A61C3F8A0201A66C3F8E3
S21440160094205A655A62C3F880201A6F22F000521E
S2144016101A675A6F22F000525A677047000E0E4003
S2144016202DE9F041B6B0744B9847744B9847072065
S214401630734DA847734C744B1C60744A744B1A60C5
S214401640744A754B1A60754B00934FF4E13301931F
S2144016504FF4006302930720A84769462046704B24
S2144016609847704D2B68002198686F4CA0472B68B0
S21440167000215868A0476D4B984700236C490222CA
S21440168021F813200133102BFAD10DF10F030DF181
S214401690D701002203F8012F9942FBD10023039380
S2144016A030238DF81030634E564D0DE0039C04AB4E
S2144016B01C4421462846B0470028FAD1039B36AA48
S2144016C0134413F8C83C23BB039B002BEED0039B6C
S2144016D036AA134413F8C93C3B2BE7D1039B13446B
S2144016E0002203F8C82C04A8534B9847534B186065
S2144016F09DF810300A2B10D004AB0024013413F8A8
S214401700012F0A2AFAD101340026DFF82C81484FEF
S21440171009E0039B01330393D6E70024F3E7013443
S2144017200136102E17D004AB1819C04780B227F8E0
S214401730160036AB234413F8C83C2C2BEFD03B2B7B
S214401740EDD004AB1A19013412F8013F2C2BE6D029
S2144017503B2BF8D1E3E73A4B04225A61C3F8A0206A
S2144017605A66C3F890205A655A62C3F880201A6FAA
S21440177022F004021A675A6F22F004025A67314D6B
S2144017804FF480062E61C5F8A06008201C4CA04788
S21440179001202D4FB8470320B8472020A0472B4CA8
S2144017A020462B4B9847002120462A4B984710222C
S2144017B000212046284B984701212046274B984732
S2144017C001212046264B98474FF485712046254BED
S2144017D0984740F635112046234B98476E63234B77
S2144017E098472E6304F526342046214B98472046DA
S2144017F0204B9847FEE700BF650140005902400075
S214401800810A400000060E40A00A0020150E400047
S2144018109C0A0020950E4000980A002000D8B80583
S214401820F50A40001800002095194000A11340001A
S214401830D80A00203D0B40007918400004150020CF
S214401840000E0E4000140E401D0F400000800B405E
S214401850B9074000BF07400005084000EB074000BE
S2144018602D08400041084000E7074000A91140000D
S214401870D50A4000E90A40000A22002100F0CCB90F
S21440188070B50F4E0F4D761BB61018BF002405D00E
S214401890013455F8043B9847A642F9D10A4E0B4D01
S2144018A0761B03F04FF8B61018BF002406D001345C
S2144018B055F8043B9847A642F9D170BD70BD00BFAD
S2144018C05049400050494000584940005049400067
S2144018D00FB400B5074983B004AB086853F8042B2F
S2144018E08168019300F0EEF903B05DF804EB04B0B4
S2144018F0704700BF1800002070B4860746D0541EBC
S214401900002A41D0CAB2034602E014F1FF343BD36A
S21440191003F8012B9D07F8D1032C2ED9CDB245EA0A
S21440192005250F2C45EA054519D903F11002264630
S214401930103E0F2E42F8105C42F80C5C42F8085CF1
S21440194042F8045C02F11002F2D8A4F1100222F030
S2144019500F0204F00F041032032C13440DD91E4618
S2144019602246043A032A46F8045BFAD8221F22F09D
S21440197003020432134404F003042CB1C9B21C44DD
S21440198003F8011B9C42FBD170BC704714460346CB
S214401990C2E700BF00290CBF022200224FF480633A
S2144019A000F000B82DE9F043504C256883B004465B
S2144019B00F4690461E4615B1AB6B002B77D0B8F15C
S2144019C0020F04D0B8F1010F7DD8002E7BDB2146F4
S2144019D0284601F0C1F8216B41B104F14003994219
S2144019E002D0284601F022FA00232363B4F90C30D3
S2144019F00022A26162601A0652D423F44A6323F09E
S214401A000303B8F1020FA38137D001AB6A462146E3
S214401A10284601F0A5FCA3891843A08116B317B346
S214401A20AB6B002B4BD0009B27609E42B4F90C302A
S214401A3027611CBF43F40063A381B8F1010F04BFC4
S214401A4043F00103A3819BB213F00800666123D0E4
S214401A5013F001002FD000207642A661A06003B0AC
S214401A60BDE8F083009E304601F0ECFC074668B3C4
S214401A70A38943F08003A381D2E7002004F1430208
S214401A8043F0020300250121A381A5602260226164
S214401A90616103B0BDE8F083A06003B0BDE8F083A9
S214401AA02169284601F0C2F9B4F90C30A5E728466A
S214401AB001F0E6F883E7A66003B0BDE8F083284669
S214401AC001F0DEF8AFE74FF0FF30E2E7DDF80090D8
S214401AD0B14506D0484601F0B5FC074608B14E462B
S214401AE0C6E7B4F90C304FF0FF30C7E718000020C7
S214401AF02DE9F84FDDF828900F46804616461D46DD
S214401B008A4600E0A2465446484614F801BB01F017
S214401B1023FC5844427812F00802F3D1BBF12D0F53
S214401B204FD0BBF12B0F04BF94F800B00AF102046B
S214401B301DB1102D56D0AC4604E0BBF1300F60D03E
S214401B400A25AC46002A0CBF6FF000494FF000490A
S214401B500021B9FBFCFE08460CFB1E9A05E029D086
S214401B600CFB0030012114F801BBABF13003092B0C
S214401B7005D9ABF14103192B0BD8ABF137039D4286
S214401B800FDDB1F1FF3FEED08645E8D24FF0FF3192
S214401B90E9E7ABF16103192B03D8ABF157039D423C
S214401BA0EFDC4B1C13D002B1404246B1C1B937609E
S214401BB0BDE8F88F9A45D3DA4FF0FF31D3E7BDE85A
S214401BC0F88F94F800B001220AF10204B0E722230D
S214401BD0C8F80030EEB1671E48463760BDE8F88F5B
S214401BE08146F8E7BBF1300FA5D1237803F0DF0339
S214401BF0582BA0D14FF0100C94F801B06546023433
S214401C00A0E7237803F0DF03582BF3D00825AC4633
S214401C1098E74846BDE8F88F30B5084C084B25682D
S214401C206C6B83B0002C08BF1C46009413460A46D3
S214401C3001462846FFF75CFF03B030BD1800002081
S214401C40480400202DE9F84F4B6E9C0493462FD550
S214401C509368126853B30E46074602F1080919E91D
S214401C6020045FEA9A0817D0043D002401E0A0450E
S214401C7010D0324655F8041F384601F075F8431C1C
S214401C8004F10104F3D10023CBF80830CBF804303C
S214401C90BDE8F88FDBF808302AF0030AA3EB0A0306
S214401CA0CBF8083009F10809002BD8D10020EAE724
S214401CB001F0A2F90023CBF80830CBF80430BDE899
S214401CC0F88F00BF2DE9F04FADB01D46019191460B
S214401CD00893069018B1836B002B00F0E080019CBF
S214401CE0B4F90C0081B28B0407D4636E40F4005103
S214401CF023F40053A181636689B20F0740F1B18097
S214401D00019B1B69002B00F0AC8001F01A010A29E8
S214401D1000F0B58000230DF1700B0B9311931093D8
S214401D200493CDF83CB0DA4699F800304C46FBB107
S214401D30252B02D11CE0252B03D014F8013F002BA5
S214401D40F9D1A4EB09059DB1109B119ACAF80090F1
S214401D5001332A44072BCAF80450119210937ADDB7
S214401D60002A40F08F84049B10922B44DA4604935A
S214401D702378002B00F0B18300204FF000038DF84D
S214401D80373004F1010962780546064603464FF0AF
S214401D90FF3409F10109A2F12001582900F20E830F
S214401DA0DFE811F037020C030C03EB020C030C03C4
S214401DB00C030C030C030C039E02F0020C0382007F
S214401DC077020C03CF01D401D401D401D401D4014D
S214401DD0D401D401D401D4010C030C030C030C032E
S214401DE00C030C030C030C030C030C033F020C0304
S214401DF00C030C030C030C030C030C030C030C0326
S214401E000C0346020C030C030C030C030C034A029F
S214401E100C030C0352020C030C030C030C030C03C0
S214401E200C030C030C030C030C03E201F6010C0339
S214401E300C030C030703F6010C030C0391020C037E
S214401E40F5028700B102C3020C03C8020C03BD01B1
S214401E500C030C03AA020AF1080A049B2B440493C1
S214401E6086E7019C0698214600F062FD002840F077
S214401E704083A18901F01A010A297FF44BAF0199EA
S214401E80B1F90E30002BFFF645AF2B464A46069872
S214401E9000F018FD049004982DB0BDE8F08F00F0D7
S214401EA0EFFE1CE77642089243F0040399F80020C0
S214401EB06FE7079613F0200240F05A8413F01001A3
S214401EC040F0F18313F0400200F0ED8308980A4694
S214401ED0014604310688089100274FF000018DF82E
S214401EE037100025611C00F0758123F080010391B6
S214401EF056EA070140F07381002C40F05683002AD2
S214401F0040F0B28313F00103059300F047840DF1CF
S214401F10B008302308F8413D059BA342B8BF23468E
S214401F2002930DB101330293039B13F0020309930E
S214401F3002D0029B02330293039B13F084030A935E
S214401F4040F06382079B029A9D1A002D40F35D8203
S214401F50102D40F37784109B119AB94ED646102721
S214401F60A2461946069C07E001F1020C0EF1080E47
S214401F700146103D102D11DD481C103207281192E5
S214401F808EE8C0001090EFDD002A40F03182103D10
S214401F90102D11464FF0010CDE46EDDC54466146EE
S214401FA0F2462A4407291192CAF80060CAF804503B
S214401FB0109100F3E6829DF837500AF1080A481C53
S214401FC0002D40F02A82099B002B00F0448202320A
S214401FD00EA902230728119210908AE80A0040F3BF
S214401FE03682002A40F08B830A9B802B4FF00100FC
S214401FF01146DA4640F03382079B029D5E1B002E58
S21440200040F32D82102E8F4D40F32F84D446102758
S214402010A246069C07E001F1020E0CF1080C0146B0
S214402020103E102E11DD481C1032072811928CE805
S214402030A0001090EFDD002A40F09682103E102E51
S2144020404FF0010E1146DC46EDDC5446E246324483
S214402050BEF1070F11928AE86000CDF840E000F329
S2144020605B83059BE41A002C0AF1080A0EF1010076
S214402070714600F3F9810599CAF800800A4407289A
S2144020801192CAF80410109040F35582002A40F08E
S214402090EE82039B1092580738D5079B02995C1A2C
S2144020A0002C40F3BA82DA46102C40F3DA831099BB
S2144020B0634E069FDDF80480102506E0881C0AF172
S2144020C0080A1946103C102C13DD4B1C1032072B07
S2144020D01192CAF80060CAF804501093EEDD002A48
S2144020E040F00B82103C102C4FF001001146DA46AF
S2144020F0EBDC224407281192CAF80060CAF8044074
S214402100109040F32382002A40F06783049B079A8E
S21440211002998A42ACBF9B185B1804931FE207964D
S2144021209E0600F119830899DD060A4600F1B5823D
S214402130580640F1B2820E880431002701220891E9
S214402140CBE643F0800399F8002022E6A2F1300166
S214402150002619F8012B06EB860601EB4606A2F18F
S21440216030010929F5D916E6089907960A688DF8C8
S21440217048204FF000000A468DF837000432012010
S2144021800290089205900DF1480803930024CBE690
S2144021900796002840F082839E0600F1D182DD0635
S2144021A000F18D82580640F18A82089DB5F900609C
S2144021B02A46F7170432304639460892002871F10D
S2144021C00002C0F2EE82611C9DF837504FF00102CB
S2144021D07FF48BAE56EA070100F0E8810393012AAC
S2144021E000F02582022A40F0F5810B98D846330944
S2144021F006F00F0143EA07733A091E461746435C4A
S21440220008F8013D56EA0703F1D1ABEB0803059306
S21440221082E699F80020002D7FF4BBAD01202025F2
S214402220B7E50796002840F0368343F01003B3E73F
S214402230079643F010033DE6079643F010036FE71A
S21440224010484000204840000796002840F02C8365
S214402250B0490B919F0600F197820898DE0601462A
S21440226000F128825D0640F12582043106880891F7
S2144022700027D80740F1D98156EA070100F0D581FA
S21440228030218DF8392043F002038DF838100222B1
S21440229023E699F800202A2A09F1010700F0F08287
S2144022A0A2F130010929B9464FF000043FF673AD5C
S2144022B019F8012B04EB840401EB4404A2F130012D
S2144022C00929F5D967E599F800206C2A03BF99F8E3
S2144022D0012043F0200309F1010943F0100358E5BB
S2144022E008990E680A46002E02F10402FFF6DAAD9F
S2144022F0089299F800204CE50796002840F0DA82CC
S21440230085490B91A6E70898834A07960B9206687C
S2144023107822302104308DF8392043F002030890AB
S21440232000278DF838100222D7E543F0200399F8AD
S21440233000202EE508990796D1F800804FF000025D
S2144023408DF837200E1DB8F1000F00F08182671C13
S21440235000F06082224600214046029301F040FB96
S214402360029B002800F08482A0EB080205920896A3
S21440237003939DF837500024CEE543F0010399F8C7
S214402380002006E599F8002001202B2501E50028CD
S21440239040F08782990600F13182DA0621D45B0646
S2144023A01FD5089A136804320892BDF810201A8088
S2144023B0BAE443F0400399F80020EAE40796002880
S2144023C040F07582002A00F0888001218DF8482070
S2144023D04FF0000202918DF8372005910DF1480824
S2144023E0D3E6089A136804320892049A1A609BE46B
S2144023F00FAA01992046FFF725FC002874D11099B2
S214402400119A01F1010CDE46B3E51099119A481C69
S2144024109DF83750002D3FF4D6AD01320DF137050B
S2144024200121072811921090CAF80050CAF80410EB
S21440243040F3B680002A40F05581099B002B3FF4BC
S214402440D3AD0EAB022208461C931D92DA460146D7
S2144024500AF1080A01300A9B802B3FF4CDAD059B5C
S214402460E41A002C7FF707AE102C2C4D1DDDD64607
S2144024701026069FDDF804A006E0881C0EF1080E24
S2144024801946103C102C0FDD4B1C1032072B1192B6
S2144024908EE860001093F0DDA2B9103C102C4FF08F
S2144024A001001146DE46EFDCF24622440728119230
S2144024B0CAF80050CAF80440109031DC0AF1080A05
S2144024C00130D8E50FAA51463846FFF7BBFB58B94E
S2144024D01099119A481CDE46D3E7119B23B1069803
S2144024E001990FAAFFF7AEFB019B9B895B067FF520
S2144024F0D2AC4FF0FF330493CDE40FAA41463846A2
S214402500FFF7A0FB0028EFD11099119A481CDA4635
S214402510D8E500BFE0474000F44740002048400070
S214402520002A40F00081059A1D9201231192CDF8B1
S21440253070801093DA460AF1080A039B590705D5BE
S214402540079B02995C1A002C3FF7AEAD049B079997
S21440255002988142ACBF5B181B1804937ABB0023D9
S2144025601093DA46FFF7E0BB0FAA01992046FFF723
S21440257069FB0028B8D11099119A01F1010EDC468A
S2144025804EE5002A40F01C819DF83710002900F0E7
S214402590118101220DF1370110461D921C91DA4639
S2144025A001460AF1080A01300DE5039B012A00F0B6
S2144025B09080022A0BD103930026002715E60FAA27
S2144025C001990698FFF73EFB0028C8D08CE7039396
S2144025D000260027594600E04146F20842EA477284
S2144025E0F80806F0070307461646303356EA070251
S2144025F001F8013C01F1FF38EED1039AD6077FF58A
S21440260004AE302B3FF401AE0239302308F8013CCB
S214402610ABEB0103059388467EE4049B079A8A4207
S214402620ACBF9B185B18049399E7022255E4002F31
S21440263008BF0A2E4CD3D846304639460A220023D5
S21440264001F028FF303208F8012D30463946002385
S2144026500A2201F01FFF06460F4656EA0703EBD153
S214402660ABEB0803059357E40594D84654E40FAA09
S21440267001990698FFF7E6FA00287FF435AF119ADD
S214402680DA465AE70FAA01990698FFF7DBFA0028C0
S2144026907FF42AAFDA46FFF7E0BB043116680891AC
S2144026A00122002719E4089801460431066808917B
S2144026B0002712E40E68043108910027D9E50899EE
S2144026C00E680A46F717043208923046394675E5D2
S2144026D0039B03930DF1B0083036012308F8416D93
S2144026E0059319E40FAA01990698FFF7ABFA00285C
S2144026F07FF4FAAE1099119A481CDA4663E40FAAA2
S21440270001990698FFF79EFA00287FF4EDAE1099DF
S214402710119A481CDA469EE6002A40F08680012040
S2144027201146DA469BE60FAA01990698FFF78AFA01
S21440273000287FF4D9AE1098119A0130DA469AE410
S214402740089E073626F00706D6E9000106F108027D
S214402750089206460F4631E5089E073626F00702E1
S21440276002F10801D2E9006708910122FFF7B5BBE4
S214402770089E073626F0070202F10801D2E90067F4
S21440278008910022FFF7A9BB089E073626F00701EE
S21440279001F108000890D1E900676AE5D846FFF7DE
S2144027A0BBBB2D25764267EB47078DF83750012295
S2144027B0FFF798BB099BD3B911460120DA464EE68F
S2144027C00FAA01990698FFF73DFA00287FF48CAED1
S2144027D01099119A481CDA461AE60FAA01990698EB
S2144027E0FFF730FA00287FF47FAE119AAEE60EABC4
S2144027F002221C931D920120DA4628E6089A049984
S2144028001368CD170846043229460892C3E90001EA
S214402810FFF78ABA40460896039301F031FC00243D
S21440282005909DF83750FFF777BB0FAA0199069899
S214402830FFF708FA00287FF457AE1099119A481C03
S214402840DA460CE61099119A1C4E0131FFF7A9BBE7
S214402850062C28BF0624059408960294DFF860806C
S21440286093E41098154E013043E48646FFF7EFBBDD
S21440287005949DF83750089603930446FFF74CBBE3
S214402880089999F801200C68043144EAE474B94682
S2144028900891FFF77EBA8DF83750C6E48DF837506A
S2144028A07AE48DF8375075E58DF83750D0E48DF8DA
S2144028B0375087E58DF8375022E500BF1048400076
S2144028C008484000F0B50C46ADF26C4D8989666EFE
S2144028D0E589199621F00201666AADF80E5000258A
S2144028E0E769ADF80C10099606951AAE4FF4806568
S2144028F06946009604960295059507970646FFF7A3
S214402900E1F9051E07DB3046694600F025F9002848
S21440291018BF4FF0FF35BDF80C305B0603D5A389D2
S21440292043F04003A38128460DF26C4DF0BD00BF36
S21440293038B5304B1B6805460C4613B19A6B002AD7
S21440294038D0B4F90C2093B218070CD52069A8B13A
S21440295013F001021ED0636900225B42A361A260AD
S214402960F0B1002038BDD9063CD5580726D420699A
S21440297042F00803A3819BB20028E9D103F42072F9
S214402980B2F5007FE4D02846214600F017FDA38923
S2144029902069DDE7990758BF6269A2600028E0D148
S2144029A0B4F90C301A06DDD543F04003A3814FF04E
S2144029B0FF3038BD184600F063F9C2E7216B51B1CD
S2144029C004F14003994204D0284600F02FFAB4F9A7
S2144029D00C200023236300232069636022F0240236
S2144029E02060C5E742F0400209232B604FF0FF30DD
S2144029F0A28138BD18000020024B13B1024800F0F7
S214402A0005B8704700000000952C400000230146A2
S214402A101A46184601F048BCB1F90C309AB22DE976
S214402A20F0410D46110780463AD46A6843F4006385
S214402A30002AAB816FDDAC6A002C49D000229BB2E5
S214402A40D8F80060C8F8002013F4805267D02A6D8A
S214402A505F0705D569682B6B521A0BB1EB6BD21A20
S214402A600023E9694046A047441C3CD0B5F90C30E9
S214402A702A692A6023F400630022AB81DB046A6083
S214402A8047D4296BC8F8006011B305F1400399425A
S214402A9002D0404600F0CAF900202863BDE8F08125
S214402AA02E69AEB12C682E6091070CBF6B6900236F
S214402AB0A41BAB600AE0234632466F6AE96940468B
S214402AC0B8470028A4EB0004064404DD002CF2DCE2
S214402AD00020BDE8F081AB8943F04003AB814FF066
S214402AE0FF30BDE8F081D8F800401D2CF3D8194BD4
S214402AF0E340DB4313F00103EDD1B5F90C206B60E6
S214402B0022F400632969AB81DA042960B9D5002C28
S214402B10B7D12865B5E7EA6B002A8CDCD8E70123F5
S214402B20E9694046A047431C024602D0AB89AC6ADE
S214402B308EE7D8F80030002BF8D01D2B01D0162B8E
S214402B4002D1C8F80060C3E7AB8943F04003AB81CD
S214402B50BDE8F0810100402010B5044682B008B1BF
S214402B60836B53B1B1F90C0008B902B010BD2046D2
S214402B7002B0BDE81040FFF74FBF019100F080F86B
S214402B800199EFE7014900F0AFBB00BF7143400039
S214402B902DE9F04F354B4568C3630024074600F5E2
S214402BA03B7204230321C0F8E412C0F8E822C0F8C0
S214402BB0E04283B02C606C60AC606C66EC812C614B
S214402BC06C61AC61AB81214605F15C000822FEF7E2
S214402BD093FEBE68DFF898B0DFF898A0DFF89890CC
S214402BE0DFF89880C5F820B001230922C5F824A054
S214402BF0C5F82890C5F82C80ED612146F381B28156
S214402C0006F15C0034607460B4607466346174616C
S214402C10B46108220193FEF76FFEFD68F66112204C
S214402C200222C6F820B0C6F824A0C6F82890C6F8F7
S214402C302C802146A881EA812C606C60AC606C6672
S214402C402C616C61AC6105F15C000822FEF754FE15
S214402C50019BED61C5F820B0C5F824A0C5F82890C2
S214402C60C5F82C80BB6303B0BDE8F08F852B4000D1
S214402C70F53F400019404000554040007540400038
S214402C80836B03B17047FFF783BF00BF704700BF39
S214402C90704700BF38B50A4C0A4D641BA4100AD0D2
S214402CA004F18043013B05EB8305013C55F80439AC
S214402CB09847002CF9D1BDE8384001F04DBE00BF22
S214402CC068494000644940002DE9F04782B080469C
S214402CD08946144600F032FB012836D04A4604F1B5
S214402CE05C0301A9404601F091FA421C064625D0F5
S214402CF0A8B39DF804E000250DF1040A09E0236816
S214402D005A1C226083F800E00135B54227D215F8F8
S214402D100AE0A368013B002BA360F0DAA769BB4238
S214402D2071462246404602DBBEF10A0FE7D101F06B
S214402D3015FA431CE8D102B0BDE8F087A38943F0FA
S214402D404003A38102B0BDE8F08709F1FF33FE2BB4
S214402D50C4D85FFA89FE06468DF804E0CBE74846BD
S214402D6002B0BDE8F08700BFB2F90C3013F4005F44
S214402D700AD110B4546E43F4005344F400545466DD
S214402D80938110BCFFF7A0BFFFF79EBFF8B5244F56
S214402D900C46064600F072FFBB685D68C4F57E616F
S214402DA00F3125F00305294421F47F6121F00F01FE
S214402DB0A1F58054B4F5805F07DB0021304601F072
S214402DC007F9BB682B44984204D0304600F058FFC1
S214402DD00020F8BD6142304601F0FAF801300DD0CF
S214402DE0104BBA6819682D1B45F001053046091B83
S214402DF05560196000F044FF0120F8BD00213046C0
S214402E0001F0E6F8BA68831A0F2BDEDD064C05495A
S214402E10246843F00103001B53600860D5E700BFF9
S214402E20B4050020640A0020BC090020002944D0D4
S214402E302DE9F0410D46804600F020FF55F8047C11
S214402E40694927F00103A5F10804E2188E68506826
S214402E50B24220F003005ED0FE0750600BD455F817
S214402E60087CE41B01F1080EA56875453B446DD00F
S214402E70E768EF60BD6015186D68ED073ED543F016
S214402E8001026260E350B3F5007F17D2DB08581C9E
S214402E909A104D6851F83070A7600123934001EBBB
S214402EA0C0022B43083AE2604B6041F83040FC6079
S214402EB04046BDE8F04100F0E3BE70475A0A042A97
S214402EC052D89A0902F13907FF0002F13805C819AD
S214402ED0CA59083890424FD0516821F003018B42BE
S214402EE032D292689042F7D1C368A060E3609C609B
S214402EF0C4604046BDE8F04100F0C2BE95683B4F16
S214402F00BD42034440D0D068E86043F0010285608B
S214402F106260E350B7E7FF07034407D455F8082C30
S214402F20A41A1344A068E268C2609060304A1268EF
S214402F3043F00100934260608C60B9D32D4B40460D
S214402F401968FFF723FFB3E71046CDE71118496825
S214402F50C90744D49168D268CA60034443F001006C
S214402F6091606060E350A3E7142A16D802F15C072C
S214402F70FF0002F15B05AAE7AA1001234D689340C3
S214402F802B434B600346B0E743F001024C610C61B3
S214402F90E560A5606260E3508AE7542A06D81A0BBB
S214402FA002F16F07FF0002F16E0590E7B2F5AA7FC7
S214402FB006D8DA0B02F17807FF0002F1770586E7BC
S214402FC040F25450824206D89A0C02F17D07FF0028
S214402FD002F17C057BE74FF47E777E2577E743F06A
S214402FE001016160136063E7B4050020BC05002062
S214402FF0C0090020940A00209368002B73D02DE966
S214403000F04F8B8983B00C4619070090164626D59C
S214403010226922B313F0020035682CD04FF0000925
S214403020B04FC846B246B84543464A4628BF3B46D8
S2144030300098B8F1000F50D0E169666AB0470028A2
S21440304058DDDAF808301B1A8144A8EB0008CAF8A5
S2144030500830002BE7D1002003B0BDE8F08F2146B2
S2144030600098FFF765FC002840F03381A389356857
S21440307013F00200D2D113F0010945D14F46019614
S21440308037B39A05D4F8088040F183804745C34655
S214403090C0F0AB8013F4906F40F0AC802068BA4626
S2144030A05A46494600F086FDA2682368A2EB08020D
S2144030B05B44A2602360019A9368A3EB0A03D14461
S2144030C0A7EB0A079360002BC5D0A389002FD8D161
S2144030D0D5F800906F680835D2E7D5F80090D5F857
S2144030E0048008359FE70020704721460098FFF788
S2144030F033FD70B3B4F90C3043F040034FF0FF306B
S214403100A38103B0BDE8F08F814633464E46A846BD
S2144031109A464D464EB380B3206823696269B145EE
S214403120CB4628BFB34698425F4604D9A3681344AB
S2144031309B4500F3A68093454BDB1346676AE169DF
S21440314000982A46B847071ED4DDB9EB0709CCD00D
S2144031500120DAF80830DB1B3D44F61BCAF808307D
S214403160002B3FF478AF002ED5D108F1080313E9C1
S214403170600098460833002EF9D032460A21284689
S21440318000F02EFC002800F0A1800130A0EB0509DD
S214403190C2E720682369984202D863699F425DD29D
S2144031A0B84528BFB8464246494600F003FDA368E6
S2144031B02268A3EB08034244A36022600BB1C246D8
S2144031C079E721460098FFF7C7FC002892D1C2460F
S2144031D071E75A46294600F0EDFCA2682368A2EB48
S2144031E00B025B44A2602360AFE72068B846BA464D
S2144031F0BB4655E762692068216902EB4208A0EBAE
S214403200010A08EBD8780AF101004FEA680838440A
S2144032104045424684BF804642465B0544D51146FB
S214403220009800F017F98346002855D05246216989
S21440323000F026FCA38923F4906343F08003A38127
S2144032400BEB0A00A8EB0A03C4F810B0C4F81480CD
S2144032502060A360B846BA46BB4621E76FF00041FF
S214403260B94228BF39464A4691FBF3F10098666A50
S21440327003FB01F3E169B047B0F1000A3FF71BAF2B
S21440328038E71A462946019300F094FC2268019BD1
S21440329000981A4422602146FFF75EFC019B0028F6
S2144032A07FF428AF1F4650E7009800F0EBFC8346BB
S2144032B00028C5D1009D21692846FFF7B7FDB4F91F
S2144032C00C300C2223F080032A6015E706F1010932
S2144032D022E74FF0FF30BFE6009A0C231360B4F9A4
S2144032E00C3009E700FCFF7F2DE9F84310F53877EE
S2144032F01FD0884606464FF000097D68BC68013DF1
S21440330011D4A389012B05F1FF3508D9B4F90E3045
S21440331001332146304602D0C04749EA00096B1CBB
S21440332004F16804EDD13F68002FE6D14846BDE879
S214403330F883B9464846BDE8F88300BF044B054AC3
S2144033401B685B6B002B08BF134693F82801704739
S2144033501800002048040020D0F8EC00704700BF5A
S21440336070B50C46B1F90E10002990B015461E46B1
S21440337014DB01AA01F03CF800280FDB029A02F4A5
S2144033807042A2F50052B2FA82F252094FF48063BC
S2144033904FF4006032602B6010B070BDA2890023ED
S2144033A012F08000336004D0402218462A6010B0E5
S2144033B070BD4FF480632B6010B070BD8A89920751
S2144033C00B4606D501F1430201211A601A61596184
S2144033D07047F0B583B001AB6A460C460546FFF72A
S2144033E0BFFF00990646284600F034F8B4F90C3082
S2144033F0D0B1019A124F0099EF6343F08003A38146
S2144034002060206161611AB93343A38103B0F0BDE7
S2144034102846B4F90E1000F0FFFFB4F90C3000282F
S214403420F2D043F00103EFE79A05EFD404F14302EC
S21440343043F002030121A381226022616161E5E736
S214403440852B4000024B0146186800F003B800BFC9
S214403450180000202DE9F04F01F10B06162E83B020
S214403460054640F29E8036F0070600F1BD80B14228
S21440347000F2BA8000F002FCB6F5FC7FC0F0938202
S214403480730A00F0B880042B00F27981B30903F187
S214403490390003F1380EC300BF4F3B44A3F1080187
S2144034A05C68A14206D10CE0002A80F2AA80E4685B
S2144034B0A14206D0636823F003039A1B0F2AF3DD6C
S2144034C070463C69DFF8E4E2744500F0AB8163681F
S2144034D023F003039A1B0F2A00F39081002AC7F8B3
S2144034E014E0C7F810E080F29D80B3F5007F80F0CE
S2144034F06181DB0803F1010C99107A6857F83C802B
S214403500C4F8088001238B4007EBCC0113430839ED
S214403510E1607B6047F83C40C8F80C4082100124CC
S21440352094409C4200F28B801C4206D120F003005F
S21440353064001C4200F10400FAD007EBC009CC46F8
S2144035408046DCF80C309C4507D16DE1002A80F2BD
S2144035507B81DB689C4500F06781596821F0030158
S2144035608A1B0F2AF2DDD3F80CC0D3F808800093EC
S2144035709C19284646F0010642F001055E60C8F8F0
S2144035800CC0CCF808807C613C61C4F80CE0C4F800
S21440359008E065605A5000F073FB009B03F1080496
S2144035A01EE0102920D800F069FB102618230220C0
S2144035B0794F3B44A3F108025C68944200F03D8199
S2144035C06368E168A66823F00303234428465A68E4
S2144035D0F16042F001028E605A6000F051FB083400
S2144035E0204603B0BDE8F08F00240C2320462B6015
S2144035F003B0BDE8F08F40204FF400734FF03F0E0D
S2144036004AE72344E1685A68A66842F00102F1603E
S21440361028468E605A6000F033FB0834204603B0DC
S214403620BDE8F08F234428465A6842F001025A60AB
S21440363000F026FB0834204603B0BDE8F08FBC6897
S214403640636823F00308B04504D3A8EB06030F2BAA
S21440365000F38580DFF85891504BD9F800201B685E
S2144036600132334404EB080A00F0558103F58053D9
S2144036700F3323F47F6B2BF00F0B5946284600F090
S214403680A7FC411C024600F0FC80824500F2F78011
S214403690434B19685944196000F04D81D9F8000031
S2144036A001301BBFA2EB0A0A5144C9F8002019603A
S2144036B012F0070100F01581C1F10800C1F58051F4
S2144036C00244083102EB0B09C9F30B09A1EB0909C7
S2144036D0494628460193009200F07AFC431C9DE838
S2144036E00C0000F04381801A484440F001001968FD
S2144036F0BA604944BC425060196017D0B8F10F0F09
S21440370040F2FB806068A8F10C0222F0070204EB4E
S214403710020E00F001004FF0050C10430F2A6060C7
S214403720CEF804C0CEF808C000F217811D4BBC6826
S2144037301A68914288BF19601B4B1A6891426268AA
S21440374088BF196022F003029642A2EB060301D816
S2144037500F2B04DC284600F093FA002440E7A21919
S21440376043F0010346F0010666602846BA6053609F
S21440377000F086FA0834204603B0BDE8F08F142BDC
S21440378071D9542B00F2A380330B03F16F0003F181
S2144037906E0EC30080E600BFB4050020940A0020E9
S2144037A0640A00208C0A0020900A0020BC050020F5
S2144037B0BC0900205A0A042A5BD9142A00F2AE80BB
S2144037C002F15C01C9005B3207EB010C7958ACF1A1
S2144037D0080C8C4500F088804A6822F00302934229
S2144037E073D289688C45F7D1DCF80C207B68E260A0
S2144037F0C4F808C09460CCF80C408FE6A11946F097
S214403800010C42F00106C4F804C0284679613961CB
S214403810C1F80CE0C1F808E04E60E25000F030FA23
S2144038200834DDE67B6879E608F1010818F0030FF6
S2144038300CF1080C7FF485AE2DE0DC68A34208BF8F
S21440384002303FF43EAEBBE619441C464A68DB688D
S21440385054F8086F42F001024A602846F3609E60C2
S21440386000F00EFABCE603F15C0003F15B0EC30009
S21440387012E69A0902F13901C9003832A4E7BC427F
S21440388054D0BC68626822F003025DE759F80839F4
S214403890994540F0868010F0030F00F1FF30F5D1D7
S2144038A07B6823EA04037B6064009C423FF6C7AE15
S2144038B0002C3FF4C4AE1C4240467FF43EAE64004B
S2144038C01C4200F10400FAD037E68C468CE7B3F58C
S2144038D0AA7F15D8F30B03F1780003F1770EC300E7
S2144038E0DAE54FF48051EDE67B689210012101FA4B
S2144038F002F213437B60624679E70123536029E76F
S21440390040F25452934222D8B30C03F17D0003F1A7
S2144039107C0EC300C0E503F1100BAEE6542A29D84E
S2144039201A0B02F16F01C9006E324DE7204B196841
S21440393059441960B2E6CAF30B0000287FF4AEAED5
S21440394008EB0B03BA6843F001035360EEE67F20B2
S2144039504FF47E734FF07E0E9EE504F10801284634
S2144039600093FFF763FA009B1968DFE601204FF0EB
S2144039700009BCE6B2F5AA7F05D8DA0B02F1780159
S214403980C900773220E740F254518A4205D89A0C53
S21440399002F17D01C9007C3216E74FF47E717E222B
S2144039A012E77B6880E7F00806F1080300E600BFF0
S2144039B0640A002082B049B15AB16BB113780B60EB
S2144039C01278101C18BF012002B0704701A9002AC7
S2144039D0F3D1104602B070476FF00100F4E700BF25
S2144039E001F0FF01102A2BDB10F0070F08D010F86B
S2144039F0013B013A8B422DD010F0070F42B3F6D16F
S214403A00F0B441EA012141EA014122F007047FF087
S214403A1000070023F0E80256083C85EA010586EADE
S214403A20010685FA47F5A3FA87F586FA47F6A5FA1A
S214403A3087F68EB9EED1F0BC01F0FF0102F0070226
S214403A4032B110F8013B013A83EA010313B1F8D1D1
S214403A500020704701387047002D06BF35460338B2
S214403A60073815F0010F07D1013015F4807F02BFEB
S214403A70013015F4C03F0130F0BC0138704700BF3C
S214403A80844641EA000313F003036DD1403A41D324
S214403A9051F8043B40F8043B51F8043B40F8043BE3
S214403AA051F8043B40F8043B51F8043B40F8043BD3
S214403AB051F8043B40F8043B51F8043B40F8043BC3
S214403AC051F8043B40F8043B51F8043B40F8043BB3
S214403AD051F8043B40F8043B51F8043B40F8043BA3
S214403AE051F8043B40F8043B51F8043B40F8043B93
S214403AF051F8043B40F8043B51F8043B40F8043B83
S214403B0051F8043B40F8043B51F8043B40F8043B72
S214403B10403ABDD2303211D351F8043B40F8043B12
S214403B2051F8043B40F8043B51F8043B40F8043B52
S214403B3051F8043B40F8043B103AEDD20C3205D322
S214403B4051F8043B40F8043B043AF9D2043208D01A
S214403B50D2071CBF11F8013B00F8013B01D30B888C
S214403B6003806046704700BF082A13D38B078DD06A
S214403B7010F003038AD0C3F10403D21ADB071CBF3C
S214403B8011F8013B00F8013B80D331F8023B20F8A6
S214403B90023B7BE7043AD9D3013A11F8013B00F8DF
S214403BA0013BF9D20B7803704B7843708B78837067
S214403BB0604670478842F0B50DD98B1898420AD2B5
S214403BC08418002A51D0224613F8014D02F8014DC0
S214403BD09942F9D1F0BD0F2A48D941EA00039B0724
S214403BE046D100F1100401F11003154653F8106C4D
S214403BF044F8106C53F80C6C44F80C6C53F8086C92
S214403C0044F8086C103D53F8046C44F8046C0F2DCF
S214403C1003F1100304F11004E8D8A2F1100323F0D6
S214403C200F0302F00F0E1033BEF1030F1944034486
S214403C3021D91E1F0D467446043C55F8047B46F8B1
S214403C40047F032CF8D8AEF1040424F003040434B3
S214403C502144234402F0030262B1013B0A4411F8B6
S214403C60014B03F8014F8A42F9D1F0BD0346F3E712
S214403C700346F2E7F0BD7246EEE700BF704700BF6E
S214403C80704700BF002900F095802DE9F04F0D46A3
S214403C90164683B0804606F10B07FFF7EFFF55F850
S214403CA004EC162F2EF00304A5F108093CD8102288
S214403CB01746BE423DD8944243DAC44B996809EB56
S214403CC00400884200F0B480436823F001010144B8
S214403CD04968C9074CD51EF0010F00F09B8031465D
S214403CE04046FFF7B7FB064600283AD055F8043C56
S214403CF023F001034B44A0F108029A4200F02181D0
S214403D00221F242A00F20781132A00F2DB80034692
S214403D102A46116819605168596092689A60294627
S214403D204046FFF783F81CE027F00707002F3A4687
S214403D30BFDA00260C233046C8F8003003B0BDE892
S214403D40F08F2E46E31B0F2B1ED8D9F8043003F015
S214403D50010323434C44C9F80430636843F001032D
S214403D6063604046FFF78CFF304603B0BDE8F08FF7
S214403D7023F00303E11891421FDBC36882682E4696
S214403D80D3600C469A60DDE7D9F8042009EB0701BA
S214403D9002F001024C4443F001031743C9F8047093
S214403DA04B60636843F00103083163604046FFF7A9
S214403DB03DF8D6E71146FFF74DBB1EF0010F8ED1FA
S214403DC055F8081CA9EB010ADAF8041021F00301A3
S214403DD00B442344934225DBC26881685646CA603A
S214403DE09160DAF80C1056F8080F221F242AC1609A
S214403DF0886000F29480132A6FD92968CAF80810A0
S214403E006968CAF80C101B2A00F2A28008350AF12D
S214403E10100263E055F8083CA9EB030ADAF80410F0
S214403E2021F0030163189342FFF659AF5646D8E790
S214403E30416821F0030BA34407F11000834556DA8E
S214403E401EF0010F7FF44BAF55F8081CA9EB010A92
S214403E50DAF8041021F003018B445845E2DC56465C
S214403E60DAF80C1056F8080F221F242AC160886022
S214403E7000F28F80132A40F28A802968CAF8081018
S214403E806968CAF80C101B2A00F28A8008350AF1C5
S214403E9010022968116069685160A96891600AEB50
S214403EA00701ABEB070242F0010299604A60DAF87C
S214403EB0043003F001031F434046CAF80470FFF77E
S214403EC0DFFE51E72B6803606B6843601B2A2DD8E2
S214403ED000F1080305F108021BE732462968116025
S214403EE069685160A96891601C46D1462AE709EB8B
S214403EF00701ABEB070B4BF0010299604A6055F89F
S214403F00043C03F001031F43404645F8047CFFF79A
S214403F10B7FE2E4628E72946FFF74CFEFFE6294621
S214403F2030461C46D146FFF745FE0BE7AB6883603C
S214403F30EB68C360242A17D000F1100305F1100285
S214403F40E7E650F8043C23F003031C442E46F9E60B
S214403F50A968CAF81010E968CAF81410242A0CD0C8
S214403F6010350AF11802B9E72B6903616B694361A2
S214403F7005F1180200F11803CBE62A69CAF81820A2
S214403F806A69CAF81C2018350AF12002A6E73246AC
S214403F907FE7294630460193FFF70CFE019B7EE7FC
S214403FA0A968CAF81010E968CAF81410242A03D081
S214403FB010350AF118026CE72A69CAF818206A69AF
S214403FC0CAF81C2018350AF1200262E7B405002022
S214403FD038B5074C0023054608462360FCF7F2FE3A
S214403FE0431C00D038BD2368002BFBD02B6038BD67
S214403FF00C15002010B50C46B1F90E1000F034FA3E
S214404000002803DB236D0344236510BDA38923F4F6
S2144040108053A38110BD00BF2DE9F0411646B1F98B
S2144040200C201F46D3050C46054607D50022022322
S214404030B1F90E1000F002FAB4F90C20B4F90E10E3
S21440404022F48052A2813B4632462846BDE8F041E3
S21440405000F014B910B50C46B1F90E1000F0EEF9A8
S214404060A389421C0EBF23F4805343F4805320653B
S214404070A38110BDB1F90E1000F068B90000000031
S21440408090F800F06DE9024520F007016FF0000C53
S21440409010F0070491F820F040F049804FF00004FB
S2144040A06FF00700D1E9002391F840F000F10800D6
S2144040B082FA4CF2A4FA8CF283FA4CF3A2FA8CF30E
S2144040C04BBBD1E9022382FA4CF200F10800A4FA75
S2144040D08CF283FA4CF3A2FA8CF3E3B9D1E90423C9
S2144040E082FA4CF200F10800A4FA8CF283FA4CF300
S2144040F0A2FA8CF37BB9D1E9062301F1200182FABA
S2144041004CF200F10800A4FA8CF283FA4CF3A2FABF
S2144041108CF3002BC6D0002A04BF04301A4612BACD
S214404120B2FA82F2FDE8024500EBD2007047D1E9D0
S214404130002304F00305C4F100004FEAC50514F05F
S214404140040F91F840F00CFA05F562EA05021CBF30
S21440415063EA050362464FF00004A9E7F8B50D464A
S2144041601446064610B1836B002B4BD0B4F90C2096
S214404170A369A36091B2080739D52369002B36D0CE
S214404180EDB289042F4615D522686169D31A8B4251
S2144041901CDA0133A168501C0139A16020601570FB
S2144041A062699A421AD0A389DB0701D50A2D15D039
S2144041B03846F8BD616E42F4005221F40051A281A7
S2144041C0226861666169D31A8B42E2DB214630463B
S2144041D0FEF7C2FC40B922680123DBE721463046A1
S2144041E0FEF7BAFC0028E3D04FF0FF37E0E7214661
S2144041F03046FEF79DFB0028F6D1B4F90C20236923
S21440420091B2BDE7FEF73CFDB0E700BFF0B506460D
S21440421085B01F4689B1104C104D2468646B002C45
S21440422008BF2C46D4F8E040A047431C03D10022E8
S2144042308A233A60336005B0F0BD0C460649074A0B
S2144042400968496B002908BF11462246D1F8E0406C
S21440425001A9A047E9E700BF180000204804002055
S21440426021B1FF2A04D80A700120704708467047DB
S2144042708A2303604FF0FF30704700BF70B50D468D
S214404280084C114606461A46284600232360FBF78C
S214404290BBFF431C00D070BD2368002BFBD03360AF
S2144042A070BD00BF0C1500202DE9F047254C256851
S2144042B0D5F848410646884692469946C4B3606853
S2144042C01F2817DC431C76B104EB80050122C5F895
S2144042D088A0D4F8881182401143022EC4F8881171
S2144042E0C5F808911ED00230636044F82080002054
S2144042F0BDE8F087144B03B34FF4C870FFF7A2F83D
S2144043000446D0B1D5F84831002780E88800C5F883
S214404310484138460123C4F88871C4F88C71002E91
S214404320E1D0D1E7D4F88C110A43C4F88C21DAE7FF
S21440433005F5A674C5F84841C1E74FF0FF30BDE823
S214404340F08700BFDC4740004534400038B5074C96
S2144043500023054608462360FCF750FD431C00D06A
S21440436038BD2368002BFBD02B6038BD0C150020D1
S21440437070B539B105460C4608B1836B83B3B4F9C2
S2144043800C3013B90026304670BD21462846FEF74D
S21440439043FBE36A064633B1E1692846984700285E
S2144043A0B8BF4FF0FF36A3891B061CD4216B41B122
S2144043B004F14003994202D02846FEF737FD002319
S2144043C02363616C21B12846FEF730FD0023636409
S2144043D0FEF75CFC0023A381FEF75AFC304670BD16
S2144043E0FEF74EFCCBE721692846FEF71FFDDDE7CA
S2144043F038B50B46074C0546114618460023236041
S214404400FCF7FFFC431C00D038BD2368002BFBD0D4
S2144044102B6038BD0C15002038B5074C00230546E8
S21440442008462360FCF7F2FC431C00D038BD2368E6
S214404430002BFBD02B6038BD0C15002070B50D4608
S214404440084C114606461A46284600232360FCF7C9
S214404450DFFC431C00D070BD2368002BFBD03360CC
S21440446070BD00BF0C15002070B50D46084C1146B7
S21440447006461A46284600232360FBF7A7FE431C41
S21440448000D070BD2368002BFBD0336070BD00BFEA
S2144044900C15002053B94AB9002908BF00281CBF94
S2144044A04FF0FF314FF0FF3000F07AB9ADF1080C15
S2144044B06DE904CE00F006F8DDF804E0DDE90223FD
S2144044C004B070472DE9F0478C460D460446089EDA
S2144044D0002B51D18A4217466DD9B2FA82FEBEF100
S2144044E0000F0BD0CEF1200C01FA0EF520FA0CFC92
S2144044F002FA0EF74CEA050C00FA0EF44FEA174A99
S214404500250CBCFBFAF81FFA87F90AFB18CC45EADB
S2144045100C4508FB09F3AB420AD9ED1908F1FF3206
S21440452080F02381AB4240F22081A8F102083D444E
S214404530ED1AA4B2B5FBFAF00AFB105544EA05445E
S21440454000FB09F9A14509D9E41900F1FF3380F0D1
S2144045500A81A14540F2078102383C44A4EB090495
S21440456040EA08400021002E61D024FA0EF40023D1
S21440457034607360BDE8F0878B4207D9002E54D074
S214404580002186E821000846BDE8F087B3FA83F1AB
S214404590002940F08E80AB4202D3824200F2FA807D
S2144045A0841A65EB03050120AC46002E3FD086E812
S2144045B01010BDE8F08712B90127B7FBF2F7B7FA3B
S2144045C087FEBEF1000F34D1EB1B3A0C1FFA87FC76
S2144045D00121B3FBF2F8250C02FB183345EA0345EC
S2144045E00CFB08F3AB4207D9ED1908F1FF3002D2B5
S2144045F0AB4200F2D1808046ED1AA3B2B5FBF2F092
S21440460002FB105543EA05440CFB00FCA44507D9C1
S214404610E41900F1FF3302D2A44500F2B8801846F0
S214404620A4EB0C0440EA08409DE731463046BDE81E
S214404630F087CEF1200405FA0EF307FA0EF720FABB
S21440464004F83A0C25FA04F448EA0308B4FBF2F1FD
S2144046504FEA184502FB11441FFA87FC45EA044519
S21440466001FB0CF3AB4200FA0EF409D9ED1901F147
S214404670FF3080F08A80AB4240F2878002393D446A
S214404680EB1A1FFA88F5B3FBF2F002FB103345EA4B
S214404690034500FB0CF3AB4207D9ED1900F1FF3898
S2144046A06FD2AB426DD902383D44EB1A40EA014125
S2144046B08FE7C1F1200722FA07F88B4005FA01F48C
S2144046C048EA030320FA07FE4FEA134CFD404EEA41
S2144046D0040EB5FBFCF94FEA1E440CFB19551FFAB5
S2144046E083F844EA054509FB08F4AC4202FA01F2B5
S2144046F000FA01FA08D9ED1809F1FF3043D2AC426E
S21440470041D9A9F102091D442D1B1FFA8EFEB5FBA7
S214404710FCF00CFB10554EEA054400FB08F8A0459B
S21440472007D9E41800F1FF3529D2A04527D9023829
S2144047301C4440EA0940A4EB0804A0FB02894C450F
S214404740C6464D4615D312D056B1BAEB0E0364EBAF
S214404750050404FA07F7CB401F43CC40376074602B
S2144047600021BDE8F0871846F8E69046E0E6C245E8
S214404770EAD2B8EB020E69EB03050138E4E72846B7
S214404780D7E7404691E78146BEE7014678E70238DC
S2144047903C4445E7084608E7A8F102083D442BE7B5
S2144047A0704700BF25632563000000006E6F206DD4
S2144047B06F72652064617461207C7C206E6F206D12
S2144047C06F72652064617461207C7C206E6F206D02
S2144047D06F72652064617461000000002000002054
S2144047E030313233343536373839414243444546E2
S2144047F000000000303132333435363738396162A4
S2144048006364656600000000286E756C6C290000C5
S2144048102020202020202020202020202020202053
S2144048203030303030303030303030303030303043
S21440483043000000504F5349580000002E0000002F
S214404840002020202020202020202828282828201B
S2144048502020202020202020202020202020202013
S214404860208810101010101010101010101010107B
S214404870100404040404040404040410101010106B
S2144048801010414141414141010101010101010135
S2144048900101010101010101010101011010101087
S2144048A01010424242424242020202020202020207
S2144048B0020202020202020202020202101010105B
S2144048C02000000000000000000000000000000083
S2144048D00000000000000000000000000000000093
S2144048E00000000000000000000000000000000083
S2144048F00000000000000000000000000000000073
S2144049000000000000000000000000000000000062
S2144049100000000000000000000000000000000052
S2144049200000000000000000000000000000000042
S2144049300000000000000000000000000000000032
S21440494000000000F8B500BFF8BC08BC9E467047A3
S214404950F92940001D014000F8B500BFF8BC08BC6E
S20C4049609E467047F900400036
S20C4049685CFBFF7F010000002C
S2144049700100000000093D000000006100000061E9
S214404980000400000000006320000020000000003B
S214404990000000000C03002074030020DC0300200D
S2144049A000000000000000000000000000000000C2
S2144049B000000000000000000000000000000000B2
S2144049C000000000000000000000000000000000A2
S2144049D00000000000000000000000000000000092
S2144049E00000000000000000000000000000000082
S2144049F00000000000000000000000000000000072
S214404A000000000000000000000000000000000061
S214404A100000000000000000000000000000000051
S214404A200000000000000000000000000000000041
S214404A300000000000000000010000000000000030
S214404A400E33CDAB34126DE6ECDE05000B000000F5
S214404A500000000000000000000000000000000011
S214404A600000000000000000000000000000000001
S214404A7000000000000000000000000000000000F1
S214404A8000000000000000000000000000000000E1
S214404DB0000000000000000043000000000000006B
S214404DC0000000000000000000000000000000009E
S214404DD0000000000000000043000000000000004B
S214404DE0000000000000000000000000000000007E
S214404DF0000000000000000043000000000000002B
S214404E00000000000000000000000000000000005D
S214404E10000000000000000043000000000000000A
S214404E20000000000000000000000000000000003D
S214404E3000000000000000004300000000000000EA
S214404E40000000000000000000000000000000001D
S214404E5000000000000000004300000000000000CA
S214404E6000000000000000000000000000000000FD
S214404E7000000000000000004300000000000000AA
S214404E8000000000000000000000000000000000DD
S214404E90000000000000000061424000B5394000BC
S214404EA000000000404840003C484000F0474000BA
S214404EB0F0474000F0474000F0474000F0474000D1
S214404EC0F0474000F0474000F0474000F0474000C1
S214404ED0FFFFFFFFFFFFFFFFFFFFFFFFFFFF00009B
S214404EE00100415343494900000000000000000013
S214404EF0000000000000000000000000000000006D
S214404F0000004153434949000000000000000000F3
S214404F10000000000000000000000000000000004C
S214404F20000000000000000000000000B405002063
S214404F30B4050020BC050020BC050020C4050020A8
S214404F40C4050020CC050020CC050020D405002058
S214404F50D4050020DC050020DC050020E405002008
S214404F60E4050020EC050020EC050020F4050020B8
S214404F70F4050020FC050020FC0500200406002067
S214404F80040600200C0600200C0600201406002014
S214404F90140600201C0600201C06002024060020C4
S214404FA0240600202C0600202C0600203406002074
S214404FB0340600203C0600203C0600204406002024
S214404FC0440600204C0600204C06002054060020D4
S214404FD0540600205C0600205C0600206406002084
S214404FE0640600206C0600206C0600207406002034
S214404FF0740600207C0600207C06002084060020E4
S214405000840600208C0600208C0600209406002093
S214405010940600209C0600209C060020A406002043
S214405020A4060020AC060020AC060020B4060020F3
S214405030B4060020BC060020BC060020C4060020A3
S214405040C4060020CC060020CC060020D406002053
S214405050D4060020DC060020DC060020E406002003
S214405060E4060020EC060020EC060020F4060020B3
S214405070F4060020FC060020FC0600200407002062
S214405080040700200C0700200C070020140700200F
S214405090140700201C0700201C07002024070020BF
S2144050A0240700202C0700202C070020340700206F
S2144050B0340700203C0700203C070020440700201F
S2144050C0440700204C0700204C07002054070020CF
S2144050D0540700205C0700205C070020640700207F
S2144050E0640700206C0700206C070020740700202F
S2144050F0740700207C0700207C07002084070020DF
S214405100840700208C0700208C070020940700208E
S214405110940700209C0700209C070020A40700203E
S214405120A4070020AC070020AC070020B4070020EE
S214405130B4070020BC070020BC070020C40700209E
S214405140C4070020CC070020CC070020D40700204E
S214405150D4070020DC070020DC070020E4070020FE
S214405160E4070020EC070020EC070020F4070020AE
S214405170F4070020FC070020FC070020040800205D
S214405180040800200C0800200C080020140800200A
S214405190140800201C0800201C08002024080020BA
S2144051A0240800202C0800202C080020340800206A
S2144051B0340800203C0800203C080020440800201A
S2144051C0440800204C0800204C08002054080020CA
S2144051D0540800205C0800205C080020640800207A
S2144051E0640800206C0800206C080020740800202A
S2144051F0740800207C0800207C08002084080020DA
S214405200840800208C0800208C0800209408002089
S214405210940800209C0800209C080020A408002039
S214405220A4080020AC080020AC080020B4080020E9
S214405230B4080020BC080020BC080020C408002099
S214405240C4080020CC080020CC080020D408002049
S214405250D4080020DC080020DC080020E4080020F9
S214405260E4080020EC080020EC080020F4080020A9
S214405270F4080020FC080020FC0800200409002058
S214405280040900200C0900200C0900201409002005
S214405290140900201C0900201C09002024090020B5
S2144052A0240900202C0900202C0900203409002065
S2144052B0340900203C0900203C0900204409002015
S2144052C0440900204C0900204C09002054090020C5
S2144052D0540900205C0900205C0900206409002075
S2144052E0640900206C0900206C0900207409002025
S2144052F0740900207C0900207C09002084090020D5
S214405300840900208C0900208C0900209409002084
S214405310940900209C0900209C090020A409002034
S214405320A4090020AC090020AC090020FFFFFFFFC5
S2084053300000020032
S804400B7D33
